:100000000C94A5090C94CD090C94CD090C94CD0940
:100010000C94CD090C94CD090C94CD090C94CD0908
:100020000C94CD090C94CD090C94FB0F0C946D101D
:100030000C94CD090C94CD090C94CD090C94CD09E8
:100040000C94CD090C94CD090C94CD090C94CD09D8
:100050000C94CD090C94CD090C94CD090C949013FB
:100060000C94CD090C94CD090C94CD090C94CD09B8
:100070000C94CD090C94CD090C94CD090C94CD09A8
:100080000C94CD090C94CD090C94CD090C94CD0998
:100090000C94CD090C94CD090C94CD090C94CD0988
:1000A0000C94CD090C94CD090C94CD0900000000EE
:1000B00000000000000000C02020C04060200000C0
:1000C0000000000000000000000000000000000030
:1000D0000000000000000000000000000000000020
:1000E0000000000000000000000000000000000010
:1000F0000000000000000000000000000000000000
:1001000000000000000000000000000000000000EF
:1001100000000000000000000000000000000000DF
:1001200000000000000000000000000000000000CF
:10013000000000000000007B42427B42427A000047
:1001400000000000000000000000000000000000AF
:10015000000000000000000000000000000000009F
:10016000000000000000000000000000000000008F
:10017000000000000000000000000000000000007F
:100180000000000000000000000000C0E0F078382F
:100190003C1C1C1C1C3C3878F0E0C0000000000037
:1001A000000000000000000000000000000000004F
:1001B0000000000000000000929292928C0000006B
:1001C000000000000000000000000000000000002F
:1001D000000000000000000000000000000000001F
:1001E00000000000000000002000000020000000CF
:1001F00000000000000000000000000000000000FF
:10020000000000000000000000003FFFFFE1800050
:100210001E12121E1E120080E1FFFF3F00000000B0
:1002200000000000000000000000000000000000CE
:100230000000000000000087080888080887000008
:1002400000000000000000000000000000000000AE
:10025000000000000000000000000000000000009E
:1002600000000000000000F82020202020200000D6
:10027000000000000000000000000000000000007E
:10028000000000000000000000000000010307C79C
:100290000F0E8E4E4E8F0707030100000000000076
:1002A000000000000000000000000000000000004E
:1002B00000000000000000276464A7A424270000B9
:1002C000000000000000000000000000000000002E
:1002D000000000000000000000000000000000001E
:1002E000000000000000002222223E222222000004
:1002F00000000000000000000000000000000000FE
:1003000000000000000000000000000000000039B4
:1003100042423108087300000000000000000000A5
:1003200000000000000000000000000000000000CD
:100330000000000000000008CC4C4ACA49480000F8
:1003400000000000000000000000000000000000AD
:10035000000000000000000000000000000000009D
:10036000000000000000008E91909791918F000096
:10037000000000000000000000000000000000007D
:100380000000000000000000000000000000008FDE
:1003900048488FC8486F00000000000000000000BF
:1003A000000000000000000000000000000000004D
:1003B00000000000000000E01302321312F20000FF
:1003C000000000000000000000000000000000002D
:1003D000000000000000000000000000000000001D
:1003E000000000000000009E90909E90909E0000F3
:1003F00000000000000000000000000000000000FD
:10040000000000000000000000000000000000F3F9
:100410008A8AF3828282000000000000000000004F
:1004200000000000000000000000000000000000CC
:1004300000000000000000000101010101000000B7
:1004400000000000000000000000000000000000AC
:10045000000000000000000000000000000000009C
:10046000000000000000000808080F08080800004D
:10047000000000000000000000000000000000007C
:10048000000000000000000000000000000000006C
:10049000000000000000000000000000000000005C
:1004A000000000000000000000000000000000004C
:1004B000000000000000000000000000000000003C
:1004C0000000000000000000F0FCFEFE0000000044
:1004D000000000000000000000000000000000001C
:1004E0000000000000000000FFFFFFFF0000000010
:1004F00000000000000000000000000000000000FC
:100500000000000000000000FFFFFFFF00000000EF
:1005100000000000000000000000000000000000DB
:1005200000000000000000000F3F7F7F000000007F
:1005300000000000000000000000000000000003B8
:100540000F3F0A0B9FF38E03F1FDFFFE000000003A
:10055000000000000000000000000000000000009B
:10056000000000000003070CFFFFFFFF0000000079
:10057000000000000000000000000000000000007B
:10058000000000000080E020FFFFFFFF00000000EF
:10059000000000000000000000000000000000C09B
:1005A000F0FC50D0F9CF71C08FBFFF7F00080C0C5A
:1005B0000E0E0E0E0E0EFEFE0E0E0E0E0E0E0E0E7B
:1005C0000E0E0E0E0E0E0E0E0E0A0A000000000099
:1005D000000000000000000000000000000000001B
:1005E000000000000000000000000000002060602B
:1005F000E0E0E0E0E0E0FEFEE0E0E0E0E0E0E0E0BF
:10060000E0E0E0E0E0E0E0E0E0A0A00000000000CA
:1006100000000000000000000000000000000000DA
:1006200000000000000000000000000000008080CA
:10063000C0C0C0E0E0E0E0E0E0E0E0E0E0E0E0E01A
:10064000E0E0E0E0E0E0E0E0F0F0F8F8F8DC0C0CEE
:1006500086808080000000000103030606060E0F5E
:100660000F0F0F0F0F0F0F0F0F0F0F0F0F0F0F0F9A
:100670000F0F0F1F1F3F3F3F776161C3030303014C
:100680000100000000000000000000000000000069
:10069000000000000000000000000000000000005A
:1006A00000000000000000000000000000FFFFFF4D
:1006B000FFFFFFFFFFFFFFFFFFFFFFFFFFFFFFFF4A
:1006C000FFFFFFFFFFFFFFFFFFFFFFFFFFFFFFFF3A
:1006D000FFFFFFFFFFFFFFFFFFFFFFFFFFFFFFFF2A
:1006E000FFFFFFFFFFFFFFFFFFFFFFFFFFFFFFFF1A
:1006F000FFFFFFFFFFFFFFFFFFFFFFFFFFFFFFFF0A
:10070000FF7F7F3F3F3F1F1F1F1F1F1F1F1F1F3FD9
:100710003F3F7F7FFFFFFFFFFFFFFFFFFFFFFFFF69
:10072000FFFFFFFFFFFFFFFFFFFFFFFFFFFFFFFFD9
:10073000FFFFFFFFFFFFFFFFFF7F3F0F07030101E9
:1007400000000080C0C08000000000000000000029
:100750000000000000000103070F1F7FFFFFFFFFE5
:10076000FFFFFFFFFFFFFFFFFFFFFFFFFFFFFFFF99
:10077000FFFFFFFFFFFFFF0F010000000000000070
:100780000000000103030100000000000000000061
:1007900000183C3C3C00000000000000010FFFFF7F
:1007A000FFFFFFFFFFFFFFFFFFFFFFFFFFFFFFFF59
:1007B000FFFFFFFFFFFFFFE0000000000000003030
:1007C0007878300000000000000000000000000009
:1007D00000000000000000000000000000E0FFFF3B
:1007E000FFFFFFFFFFFFFFFFFFFFFFFFFFFFFFFF19
:1007F000FFFFFFFFFFFFFFFFFFFCF0E0C0800000F6
:1008000000000000000000000000000000000018D0
:100810003C3C180000000080C0E0F0FCFFFFFFFF40
:10082000FFFFFFFFFFFFFFFFFFFFFFFFFFFFFFFFD8
:10083000FFFFFFFFFFFFFFFFFFFFFFFFFFFFFFFEC9
:10084000FEFCFCF8F8F8F0F0F0F0F0F0F0F0F0F862
:10085000F8F8FCFCFEFEFFFFFFFFFFFFFFFFFFFFBE
:10086000FFFFFFFFFFFFFFFFFFFFFFFFFFFFFFFF98
:10087000FFFFFFFFFFFFFFFFFFFFFFFFFFFFFFFF88
:10088000FFFFFFFFFFFFFFFFFFFFFFFFFFFFFFFF78
:10089000FFFFFFFFFFFFFFFFFFFFFFFFFFFFFFFF68
:1008A000FFFFFFFFFFFFFFFFFFFFFFFFFFFFFFFF58
:1008B000FFFFFFFFFF00BE8888888888880000C887
:1008C0004808CF4848C80000A32424A52424A30036
:1008D00000272424E7242427000002020203020246
:1008E000020000121212F2121210120000728A821A
:1008F0008382828A7200001038286D457CC682008F
:10090000009F040484040404840000C76434373462
:100910003464C70000070404040404040700000052
:100920000000003E5B4F5B3E3E6B4F6B3E1C3E7CCF
:100930003E1C183C7E3C181C577D571C1C5E7F5E7D
:100940001C00183C1800FFE7C3E7FF00182418003C
:10095000FFE7DBE7FF30483A060E262979292640D3
:100960007F050507407F05253F5A3CE73C5A7F3EFF
:100970001C1C08081C1C3E7F14227F22145F5F0091
:100980005F5F06097F017F006689956A606060602D
:100990006094A2FFA29408047E040810207E201018
:1009A00008082A1C08081C2A08081E101010100C21
:1009B0001E0C1E0C30383E3830060E3E0E0600006F
:1009C00000000000005F00000007000700147F1413
:1009D0007F14242A7F2A1223130864623649562082
:1009E000500008070300001C2241000041221C00A7
:1009F0002A1C7F1C2A08083E080800807030000866
:100A000008080808000060600020100804023E5139
:100A100049453E00427F40007249494946214149CB
:100A20004D331814127F1027454545393C4A494932
:100A30003141211109073649494936464949291E9C
:100A4000000014000000403400000008142241148B
:100A500014141414004122140802015909063E41DD
:100A60005D594E7C1211127C7F494949363E414105
:100A700041227F4141413E7F494949417F0909095E
:100A8000013E414151737F0808087F00417F4100CA
:100A90002040413F017F081422417F404040407F79
:100AA000021C027F7F0408107F3E4141413E7F09C6
:100AB0000909063E4151215E7F0919294626494907
:100AC000493203017F01033F4040403F1F20402047
:100AD0001F3F4038403F6314081463030478040345
:100AE0006159494D43007F414141020408102000F3
:100AF0004141417F04020102044040404040000364
:100B000007080020545478407F284444383844442F
:100B10004428384444287F385454541800087E0927
:100B20000218A4A49C787F0804047800447D400047
:100B30002040403D007F1028440000417F40007C61
:100B4000047804787C080404783844444438FC1859
:100B500024241818242418FC7C080404084854543D
:100B6000542404043F44243C4040207C1C2040206A
:100B70001C3C4030403C44281028444C9090907CD1
:100B80004464544C440008364100000077000000E3
:100B90004136080002010204023C2623263C1EA125
:100BA000A161123A4040207A385454555921555584
:100BB0007941215454784121555478402054557935
:100BC000400C1E52721239555555593954545459C6
:100BD00039555454580000457C410002457D42007F
:100BE00001457C40F0292429F0F0282528F07C5488
:100BF0005545002054547C547C0A097F49324949A8
:100C000049323248484832324A4848303A41412114
:100C10007A3A42402078009DA0A07D39444444396E
:100C20003D4040403D3C24FF2424487E4943662B00
:100C30002FFC2F2BFF0929F620C0887E09032054A2
:100C40005479410000447D413048484A32384040A0
:100C5000227A007A0A0A727D0D19317D2629292F00
:100C600028262929292630484D4020380808080818
:100C700008080808382F10C8ACBA2F102834FA001A
:100C8000007B000008142A142222142A140895005C
:100C9000220095AA005500AAAA55AA55AA0000004C
:100CA000FF00101010FF00141414FF001010FF00BC
:100CB000FF1010F010F0141414FC001414F700FFCF
:100CC0000000FF00FF1414F404FC141417101F108C
:100CD000101F101F1414141F00101010F00000003B
:100CE000001F101010101F10101010F01000000046
:100CF000FF101010101010101010FF10000000FF57
:100D0000140000FF00FF00001F10170000FC04F497
:100D100014141710171414F404F40000FF00F7144F
:100D2000141414141414F700F714141417141010D6
:100D30001F101F141414F4141010F010F000001FF2
:100D4000101F0000001F14000000FC140000F01031
:100D5000F01010FF10FF141414FF141010101F00D7
:100D6000000000F010FFFFFFFFFFF0F0F0F0F0FFD9
:100D7000FFFF0000000000FFFF0F0F0F0F0F3844B0
:100D80004438447C2A2A3E147E02020606027E0271
:100D90007E0263554941633844443C04407E201E32
:100DA0002006027E020299A5E7A5991C2A492A1C61
:100DB0004C7201724C304A4D4D303048784830BC4E
:100DC000625A463D3E494949007E0101017E2A2A78
:100DD0002A2A2A44445F444440514A444040444AF9
:100DE00051400000FF0103E080FF000008086B6B2A
:100DF000083612362436060F090F060000181800B0
:100E000000001010003040FF0101001F01011E0012
:100E1000191D1712003C3C3C3C0000000000F0F89B
:100E20009C8E8783878E9CF8F00000FEFF030303EF
:100E30000303070EFCF80000FEFF03030303030790
:100E40000EFCF80000FFFF00000000000000FFFFA4
:100E50000000FEFF8383838383C7EE7C380000F8A5
:100E6000FC0E07030303070EFCF800003F7FE0C001
:100E70008080C0E07F3FFFFF01010101010101FF10
:100E8000FF0000FFFF0C0C0C0C1C3E77E3C10000C0
:100E90007FFFC0C0C0C0C0E0703F1F00001F3F7098
:100EA000E0C0C0C0E0703F1F00007FFFC1C1C1C1F2
:100EB000C1E3773E1C00001F3F70E0C0C0C0E0707F
:100EC0003F1F000000000001FFFF01000000D5F0FF
:100ED0008D14A1C881CFD9F1AF200000000000001F
:100EE00000080C0C0E0E0E0E0E0EFEFE0E0E0E0E5A
:100EF0000E0E0E0E0E0E0E0E0E0E0E8E8ECECECED2
:100F0000EEEE6E6E02000000000000000000000027
:100F100000000000000000000000000000000000D1
:100F200000000000000000000000C0C0C0C0F8F8D1
:100F3000C0C0C0C0C0C0C0C0C0FCFC0000000000F9
:100F400000000000000000000000000000000000A1
:100F50000000000000000000000000081C3C367685
:100F600076777F7F7F7F7F7FFF7FFFFF7F7F7F7F22
:100F70007F7F7F7F7F7F7F7F7F7FFF7FFFFFFFFF01
:100F8000FFC90A1C1C3E1C1C0000000000001818B1
:100F9000B8B8F0F0E0E0E0C0C000000000000000E1
:100FA00000000000000000000000030303034FCF17
:100FB000C303030303030303010100000000000057
:100FC000000000000000007CC2B939392929827C68
:100FD0000000000000000000000000000000000011
:100FE000000818183838383838383F3F383838381B
:100FF000383838383838383838383838393A3B3B68
:10100000393B3B2B000000000000000000000707F8
:10101000C3E361616060E0C1010000000000000006
:101020000000000000000000000000000000078732
:1010300087C7C7C7C7C7C7C7C7C7C7000000000063
:1010400000000000000000000071417111710000FB
:101050000000000000000000000000000000000090
:101060000000000000000000000000000000000080
:101070000000000000000000000000000000000070
:101080000000000000000000000000000000000060
:1010900087CECCCCCCCCCE87000000000000000076
:1010A0000000000000000000000000000000FFFF42
:1010B000C7037FFFFFC38383CFFFFF000000000053
:1010C000000000000000000001CE49CE02CE00006A
:1010D0000000000000000000000000000000000010
:1010E0000000000000000000000000000000000000
:1010F00000000000000000000000000000000000F0
:101100000000000000000000000000001898D8183F
:101110001F1D98D8D8D8991F0000000000000000BB
:101120000000000000000000000080808080F9F9CD
:101130008180808183838787C3FBF80000000000E3
:101140000000000000000000003B222322230000DA
:10115000000000000000000000000000000000008F
:10116000000000000000000000000000000000007F
:10117000000000000000000000000000000000006F
:10118000000000000000000000000000003F71E0CF
:10119000E0703F0301C1F37F000000000000000089
:1011A00000000000000000000080E7E7E7070F0FE5
:1011B0000787C7E7E7E7E7E7C3C3010000000000D0
:1011C0000000000000000000000F0909090F0808D6
:1011D000000000000000000000000000000000000F
:1011E00000000000000000000000000000000000FF
:1011F00000000000000000000000000000000000EF
:1012000000000000000000000000000000878E9C2D
:10121000B8F0F0F8BC9C8E870000000000000000D1
:10122000000000000000000000FFFFE3808080C09D
:10123000F8FFFF0F01010101E7FFFF0000000000C0
:10124000000000000000000000000000000000009E
:10125000000000000000000000000000000000008E
:10126000000000000000000000000000000000007E
:10127000000000000000000000000000000000006E
:10128000000000000000000000000000000101015B
:101290000101010101010101000000000000000046
:1012A000000000000000000000000103070707071E
:1012B0000301000000000007070701000000000014
:1012C000000000000000000000000000000000001E
:1012D0000000000000000000000000080B000202F7
:1012E00002010009040000010202000005240010B0
:1012F000010524010101042402060524060001075A
:1013000005810310004009040100020A00000007E3
:1013100005020240000007058302400000040309A3
:101320000412010002EF0201404123368000010156
:1013300002030141726475696E6F204C4C43004199
:10134000726475626F790000831611241FBECFEF9F
:10135000DAE0DEBFCDBF11E0A0E0B1E0E2EFFDE2F8
:1013600002C005900D92AA34B107D9F725E0AAE48E
:10137000B1E001C01D92A43DB207E1F719E0C5EA52
:10138000D9E004C02197FE010E94EC16C43AD107AF
:10139000C9F70E941F140C94F7160C940000CF920A
:1013A000DF92EF92FF920F931F93CF93DF936C0125
:1013B0007A018B01C0E0D0E0CE15DF0581F0D801C5
:1013C0006D918D01D601ED91FC910190F081E02DA0
:1013D000C6010995892B11F02196EECF7E01C70138
:1013E000DF91CF911F910F91FF90EF90DF90CF9001
:1013F00008952D9A08958FB18095807F669B8860AF
:101400001C9B846008952F923F924F925F926F923F
:101410007F928F929F92AF92BF92CF92DF92EF9284
:10142000FF920F931F93CF93DF93CDB7DEB728972B
:101430000FB6F894DEBF0FBECDBF9D838C836A309C
:10144000A1F4DC0155962C91559751968D919C9164
:101450005297B8E02B9F800D911D1124EC81FD81E6
:10146000928B818B108A1786C6C06D3009F4C3C079
:10147000AC81BD811F968D919C91509780389105CC
:10148000BCF0EC81FD812589422F50E08785908951
:10149000F6E02F9F800D911D1124AC81BD815096E7
:1014A0009C938E931F9756962C9121118FC0A3C0A9
:1014B000EC81FD81E188F288F0E4EF16F1040CF78D
:1014C000AC81BD815596BC91BE839C01E5E0BE9F79
:1014D000200D311D1124121613069CF6CB2ED12C93
:1014E000970158E0B59F200D311D112412161306E7
:1014F00044F6AC81BD8154965C90549753964C90C1
:10150000B5E06B9FF00111249F01225E364F3887B2
:101510002F83912C30E1732EEF81F8858490F5E0D4
:101520009F1201C0812C870128E0622E80FE02C03C
:10153000542D01C0552D511103C0541409F433C06A
:101540009C01F52FF170322E622F681B4E816417BB
:1015500050F5B801A62FA01B5E81A51708F520380D
:101560003105D8F460347105C0F45B01A501E1E0F8
:1015700041FDE4E040FDEE0F42FDE295487F749EA0
:10158000D0011124A30DBA83A983AF5ABE4FBC90DA
:10159000BE2AF11101C0BE26BC926F5F7F4FDACF29
:1015A0002F5F3F4FD0CF86946A940C0D1D1D6110A4
:1015B000BDCF93948C0D9D1D2F8138852F5F3F4F9C
:1015C00038872F8336E09312A7CF5BCF6AEF64038F
:1015D0009001659F300D112420583F4F281739077F
:1015E00054F48C819D81DC01ED91FC910190F0819E
:1015F000E02D6AE0099581E090E028960FB6F89416
:10160000DEBF0FBECDBFDF91CF911F910F91FF9035
:10161000EF90DF90CF90BF90AF909F908F907F9092
:101620006F905F904F903F902F9008952F923F9230
:101630004F925F926F927F928F929F92AF92BF92E2
:10164000CF92DF92EF92FF920F931F93CF93DF938E
:10165000CDB7DEB760970FB6F894DEBF0FBECDBF33
:10166000EB82E22EF12CF88AEF869701280F391FC2
:1016700037FD3CC1803891050CF038C19B01200F2B
:10168000311D37FD33C1603471050CF02FC1DB0112
:1016900077FF04C0AA27BB27A61BB70BA770BB27E1
:1016A0009B0177FF02C0295F3F4FE3E03595279507
:1016B000EA95E1F777FF08C02150310968E070E052
:1016C000FB01EA1BFB0BDF01E02FE695E695E695B3
:1016D000F0E0077009F03196B9017695762F66270C
:1016E00077956795680F791F6F5A7E4F7F01E20EDD
:1016F000F31EFF82EE82C12CD12CE8E0F0E08F01D6
:101700000A1B1B0B1D830C83EE80FF80E216F30681
:1017100009F4ECC02830310509F4E8C02F3F0FEF81
:1017200030070CF4D6C08B0100581F4F198708876B
:101730005B014B013B012C0118011A83098300E076
:1017400010E0EF84F8880E151F050CF0C2C0E0E829
:101750004E16510409F4BDC057FC9FC02F3FFFEF48
:101760003F0709F4BFC07801EC0CFD1CEB81E130B0
:10177000A9F4F701E40FF51FE491EE2EF12CF70127
:101780000A2E02C0EE0FFF1F0A94E2F7FB87EA87DA
:10179000F401E080FA85EF2AF4012CC0FB81F111FD
:1017A00016C0F701E40FF51FE491F0E00A2E02C025
:1017B000EE0FFF1F0A94E2F77F01E094F094FB869E
:1017C000EA86F501E080FA85EF22F50113C0F70102
:1017D000E40FF51FE491F0E07F010A2E02C0EE0C49
:1017E000FF1C0A94E2F7FB86EA86F301E080FA85A3
:1017F000EF26F301E082109709F44FC0273031053E
:1018000009F44BC07801EC0CFD1CFB81F130B1F404
:10181000F701E40FF51FE491F0E07F010C8002C0B6
:10182000F594E7940A94E2F7FB86EA86E885F98561
:10183000E080FA85EF2AE885F9852EC0FB81F11159
:1018400018C0F701E40FF51FE491F0E00C8002C02E
:10185000F595E7950A94E2F77F01E094F094FB8612
:10186000EA86E981FA81E080FA85EF22E981FA814E
:1018700013C0F701E40FF51FE491F0E07F010C8045
:1018800002C0F594E7940A94E2F7FB86EA86F10138
:10189000E080FA85EF26F101E0820F5F1F4FE885B7
:1018A000F9853196F987E887E981FA813196FA83DB
:1018B000E983FFEF2F1A3F0AEFEF4E1A5E0AFFEFA0
:1018C0006F1A7F0AEFEF8E1A9E0AFFEFAF1ABF0A58
:1018D00038CF2F5F3F4F60587F4FEF84F888CE0C92
:1018E000DF1C12CF109709F08DCFD7CF60960FB6BF
:1018F000F894DEBF0FBECDBFDF91CF911F910F9146
:10190000FF90EF90DF90CF90BF90AF909F908F901F
:101910007F906F905F904F903F902F900895089523
:10192000089580E090E00895EF920F93EE24E39401
:1019300000E420E84CEA50E060E070E080E090E0F5
:101940000E94160B80915B0583FD05C080915A05AE
:1019500083FD109210010F91EF9008950C94B4162E
:10196000BC0180E090E00C94AB120E94F2168F92C2
:101970009F92AF92BF92CF92DF92EF92FF920F931E
:101980001F93CF93DF930E94FB0983FF52C1C9E5E8
:10199000DBE112E084E1A82EB12C80914C01909102
:1019A0004D01019690934D0180934C0180910E0161
:1019B00090910F01019790930F0180930E018091F8
:1019C0000C0190910D01019690930D0180930C01F3
:1019D00080910A0190910B0183339105BCF001972E
:1019E00090930B0180930A01809108019091090165
:1019F00001979093090180930801809106019091CD
:101A000007010197909307018093060180914A0195
:101A100090914B01853691052CF4019690934B01E2
:101A200080934A0180914A0190914B01843691053F
:101A30002CF0029690934B0180934A01C0904A018A
:101A4000D0904B01809006019090070187E9C8165D
:101A5000D10434F084E18816910414F0109310013D
:101A6000C60185569109C19788F5E12C0BE22AE061
:101A700042EE58E06FE070E088E290E00E94160BC2
:101A80000E94FB0983FF22C080910401909105010F
:101A90000196909305018093040180910201909139
:101AA0000301019790930301809302018FEF881A3D
:101AB000980A909207018092060180910801909106
:101AC000090101969093090180930801E12C03E23A
:101AD00029E045EB58E06DE170E080E090E00E9485
:101AE000160B1092610510926005B0926305A092EA
:101AF00062050D2C000CEE08FF08F7FE0EC06DE22B
:101B000081E595E00E94030A66277727CB016C19CF
:101B10007D098E099F094AE003C04AE0C701B6016A
:101B20000E94AA0F80E00E949B0FC12CD12C812C17
:101B3000912CEE24E39408E028E04DEA58E0B4014B
:101B4000C6010E94160B88E0880E911C80E488165E
:101B5000910479F788E0C80ED11C80E8C816D1043A
:101B600031F764E670E080E090E00E94AB12E12C77
:101B700001E12BE24DEA56E064E170E080910C0156
:101B800090910D010E94160B2BE24CE256E067E1AA
:101B900070E080910A0190910B010E94160B6091F8
:101BA00004017091050109E020E24CEE55E08091BE
:101BB0000601909107010E94160B6091020170913D
:101BC000030120E24CEA55E080910801909109015F
:101BD0000E94160B80914C0190914D018832910525
:101BE0005CF400E220E24CE255E06FE070E081E658
:101BF00090E00E94160B17C08897A9F0C0900001D2
:101C0000D0900101E12C00E220E24CEA54E06FE0C8
:101C100070E0C6010E94160B8FEFC81AD80AD09246
:101C20000101C092000180E00E949B0F219709F002
:101C3000B4CEDF91CF911F910F91FF90EF90DF9085
:101C4000CF90BF90AF909F908F90089520915001BA
:101C5000211103C08FEF9FEF08955FB7F89422E042
:101C60002093E9002091F20030E01216130614F4DC
:101C700021E030E0422FFC0184E6415038F0289802
:101C800080937A059091F1009193F7CF211531055A
:101C900021F08091F200882319F05FBFC9010895F7
:101CA0008BE68093E800F9CF2FB7F89483E0809318
:101CB000E9009091E800892F807295FF04C090910F
:101CC000F20080E4891B2FBF089580917205811175
:101CD0000DC082E080936E0584E080936F051092C2
:101CE00071051092700581E0809372058EE695E093
:101CF0000895CF93DF931F92CDB7DEB76983DC01E0
:101D0000ED91FC910280F381E02D41E050E0BE01B5
:101D10006F5F7F4F09950F90DF91CF91089583E01A
:101D20008093E9008091F200882319F08AE3809380
:101D3000E80008950E94540E90E00895CF93DF9339
:101D40001F92CDB7DEB7FC018485958597FD05C050
:101D50002FEF3FEF358724870BC0CE0101960E94FD
:101D6000260E019719F4898190E002C08FEF9FEF52
:101D70000F90DF91CF9108950F931F93CF93DF932F
:101D80001F92CDB7DEB78C01FC018485958597FF46
:101D90000EC0CE0101960E94260E019719F489818A
:101DA00090E002C08FEF9FEFF80195878487F801DC
:101DB000848595850F90DF91CF911F910F910895A4
:101DC000FC018485958597FD0BC09FB7F89482E050
:101DD0008093E9008091F2009FBF90E00196089502
:101DE0009FB7F89482E08093E9008091F2009FBF52
:101DF00090E0089540916A0550916B052091680527
:101E00003091690542175307B4F49091E80095703A
:101E1000E1F39091E80092FD19C08093F100809168
:101E20006A0590916B0501968F739927892B19F498
:101E30008EEF8093E80080916A0590916B05019682
:101E400090936B0580936A0581E0089580E0089582
:101E5000DF92EF92FF920F931F93CF93DF93D82ED1
:101E60008A017B01E40EF51EEB01CE15DF0571F052
:101E7000D7FE03C0FE01849101C088810E94FA0E42
:101E800021968111F2CF8FEF9FEF01C0C801DF9142
:101E9000CF911F910F91FF90EF90DF9008950F93D6
:101EA0001F93CF93DF931F92CDB7DEB782E0898374
:101EB00042E450E06BED72E180E80E94280F0E943E
:101EC000650EDC0112960D911C91139701151105F9
:101ED00089F0D801ED91FC910280F381E02DBE01E3
:101EE0006F5F7F4FC801099597FD04C0F801008519
:101EF0001185ECCF89810F90DF91CF911F910F91C8
:101F00000895615030F02091F100FC01208301968A
:101F1000F8CF289884E680937A05089580E0E1E57B
:101F2000F1E081118FEF002481938193819381935C
:101F30000394D1F70895E1E5F1E0A0E0B8E0008076
:101F40000EBC8111012C1197A0FDFDCF0192B9F7B4
:101F50000DB408958F929F92AF92BF920F931F93EB
:101F6000CF93DF93CDB7DEB7A1970FB6F894DEBF5E
:101F70000FBECDBF19A2423008F44AE08E010F5DBA
:101F80001F4F842E912CA12CB12CA50194010E94ED
:101F9000CA16E62FB901CA0101501109EA3014F43A
:101FA000E05D01C0E95CD801EC93232B242B252BA9
:101FB00061F70115110571F0F80101900020E9F7B2
:101FC0003197AF01401B510BB80181E595E00E94AC
:101FD000CF0902C080E090E0A1960FB6F894DEBF72
:101FE0000FBECDBFDF91CF911F910F91BF90AF90EA
:101FF0009F908F9008951F920F920FB60F92112409
:102000008F939F938091E1009091E100937F909353
:10201000E10083FF0FC01092E90091E09093EB0084
:102020001092EC0092E39093ED001092500198E032
:102030009093F00082FF20C093E09093E90090918C
:10204000F200992319F09AE39093E80090916D05BE
:10205000992339F090916D05915090936D059923D6
:1020600089F190917A05992339F090917A059150F0
:1020700090937A05992341F184FF10C08091E2008A
:102080008E7E81608093E2008091E1008F7E80935C
:10209000E10080914F018E7E806111C080FF16C0EB
:1020A0008091E2008E7E80618093E2008091E10069
:1020B0008E7E8093E10080914F018E7E81608093BF
:1020C0004F0104C05D9ACDCF289AD6CF9F918F91B2
:1020D0000F900FBE0F901F9018951F920F920FB682
:1020E0000F921124CF92DF92EF92FF920F931F93E2
:1020F0002F933F934F935F936F937F938F939F9310
:10210000AF93BF93EF93FF93CF93DF93CDB7DEB73A
:102110006C97DEBFCDBF1092E9008091E80083FF8D
:10212000FBC168E0CE0145960E94810F82EF80934B
:10213000E8008D8987FF05C09091E80090FFFCCFF3
:1021400003C09EEF9093E800982F907609F0C6C0E8
:102150009E894F89588D2F89F88C91110CC0803839
:1021600029F480914E018093F10002C01092F10099
:102170001092F10045C1913051F4811141C14130BB
:10218000510509F03DC180914E018D7F0BC0933008
:1021900061F4811135C14130510509F031C180919F
:1021A0004E01826080934E012BC1953049F480919D
:1021B000E80080FFFCCF822F80688093E30020C17D
:1021C000963009F05EC00B8D1C8D22E01092E90064
:1021D00010926B0510926A05F21232C010926905D6
:1021E000109268050E944F0F99E0BE016F5F7F4F0C
:1021F000DB01E92F1D92EA95E9F79983FA8291E0D4
:102200009E8390EA98879AEF998720916A0530918A
:102210006B05275F3F4F3C832B838D831092E90032
:1022200010926B0510926A0510936905009368057A
:1022300049E050E080E00E94280F0E944F0FE0C06C
:1022400010936905009368050E94650EDC011296E3
:102250000D911C9113970115110509F4BBC0D8010C
:10226000ED91FC910480F581E02DBE016B5E7F4F06
:10227000C8010995009709F0C7C0F80100851185CC
:10228000EACF973009F445C1983021F481E080937A
:10229000F100B6C0993009F0B3C0837009F039C1BC
:1022A000EEE1F1E081E031E096E32081211109C007
:1022B0008EE78093EA001092EA008F8980935001A4
:1022C0009FC08093E9003093EB0021912093EC00B4
:1022D0009093ED008F5F873041F7EACF8B8D9C8D17
:1022E0001092E90010926B0510926A0590936905AF
:1022F00080936805898D811153C08E899D89913A9B
:1023000049F4813209F005C147E050E065E171E030
:1023100080E0BBC0913209F0FCC0833269F48F8940
:10232000988DA0E0B0E08093110190931201A093EA
:102330001301B093140164C0803269F48091E80005
:1023400082FFFCCF67E085E191E00E94810F8BEF77
:102350008093E80055C0823209F052C08F89809383
:102360001C01EEEFFFE7859194918B3F9C4D19F096
:10237000E0E0F8E002C0EEEFFAE080911501909104
:102380001601A0911701B0911801803B9440A1055E
:10239000B10509F09EC080911C0180FF79C099C0F1
:1023A0000E94650EFC01028113810115110509F4DB
:1023B000B0C0D801ED91FC910190F081E02DBE01FB
:1023C0006B5E7F4FC801099581111AC0F801008525
:1023D0001185EBCFF1E0FF1609F44EC0F3E0FF12D8
:1023E00098C08F89882309F44AC0823089F440E874
:1023F00067E08FE393E10E944E16882309F489C0B9
:102400008EEF8093E80088C018161906CCF381C0BF
:10241000813029F440E86BE083E393E1ECCF833033
:1024200009F077C00E94650EDC011296ED90FC90D9
:1024300013978E010F5F1F4F6801E114F10479F0CB
:10244000D701ED91FC910680F781E02DB801C7011D
:102450000995080F111DF701E084F184EECFD80132
:102460001C92F60101900020E9F73197BF016C1929
:102470007D0940E0C601BFCF61E273E102C06DE1BA
:1024800073E1FB01449150E080E80E94280FB8CF2F
:10249000EE3F2AE0F20751F0808191818737A7E76C
:1024A0009A0721F09093FF0A8093FE0A87E797E747
:1024B000918380838091600080936C059BE088E12C
:1024C0000FB6F894A895809360000FBE90936000BB
:1024D00097CF808191818737974709F091CFA89551
:1024E0008091600088618093600080916C0580938A
:1024F0006000EE3FBAE0FB0739F08091FE0A909150
:10250000FF0A918380837CCF1092FF0A1092FE0A0B
:1025100077CF81E28093EB006C960FB6F894DEBF24
:102520000FBECDBFDF91CF91FF91EF91BF91AF91E2
:102530009F918F917F916F915F914F913F912F91DB
:102540001F910F91FF90EF90DF90CF900F900FBEF3
:102550000F901F9018958F929F92AF92BF92CF923B
:10256000DF92EF92FF926B017C010E946B134B0193
:102570005C01C114D104E104F104F1F00E946B1379
:10258000DC01CB0188199909AA09BB09883E93404F
:10259000A105B10570F321E0C21AD108E108F108E4
:1025A00088EE880E83E0981EA11CB11CC114D104D2
:1025B000E104F10419F7DDCFFF90EF90DF90CF90A9
:1025C000BF90AF909F908F9008958F929F92AF92FF
:1025D000BF92CF92DF92EF92FF920F931F93CF9310
:1025E000DF936C017B018A0180911C01882309F42F
:1025F0005CC080915001882309F457C080914F013D
:1026000080FF05C08091E00082608093E000E801D7
:10261000B12C8AEFA82E93E0892E2AE3922E2097E0
:1026200011F4BB20D9F10E94540E81110AC0AA9462
:10263000AA20D9F161E070E080E090E00E94AB1246
:10264000EECF282F30E0C217D3070CF48C2F9FB7A2
:10265000F8948092E9002091E80025FF1DC0282F02
:1026600030E0C21BD30BF701815020F04191409321
:10267000F100FACFE20EF31EBB2019F09092E800B1
:102680000AC08091E80085FD07C09092E800BB2455
:10269000B394209709F0B12C9FBFC1CF5D9884E619
:1026A00080936D051016110644F081E090E0F6016C
:1026B0009383828380E090E001C0C801DF91CF91D5
:1026C0001F910F91FF90EF90DF90CF90BF90AF9050
:1026D0009F908F9008953FB7F8948091D005909186
:1026E000D105A091D205B091D30526B5A89B05C010
:1026F0002F3F19F00196A11DB11D3FBFBA2FA92F81
:10270000982F8827820F911DA11DB11DBC01CD01FD
:1027100042E0660F771F881F991F4A95D1F70895E9
:102720001F920F920FB60F9211242F933F938F9306
:102730009F93AF93BF938091CB059091CC05A091CF
:10274000CD05B091CE053091CF0523E0230F2D3775
:1027500020F40196A11DB11D05C026E8230F0296A5
:10276000A11DB11D2093CF058093CB059093CC057F
:10277000A093CD05B093CE058091D0059091D10561
:10278000A091D205B091D3050196A11DB11D8093F2
:10279000D0059093D105A093D205B093D305BF91F6
:1027A000AF919F918F913F912F910F900FBE0F90FE
:1027B0001F9018950F931F93CF93DF938C0181E0A7
:1027C00090E00E94AE0C80FF32C08AE090E00E9450
:1027D000AE0C9FEF980F9E3F50F522E330E0D801FA
:1027E00050963C932E931F9728E330E052963C93EB
:1027F0002E935197CBE0D0E0D801ED91FC91019060
:10280000F081E02D682FC8010995CE010E94AE0C21
:102810002196C131D10581F780E00E949B0F88EE9F
:1028200093E0DF91CF911F910F910C94B00CDF9149
:10283000CF911F910F91089504970C94DA13789417
:1028400084B5826084BD84B5816084BD85B58260B5
:1028500085BD85B5816085BD80916E008160809366
:102860006E001092810080918100826080938100CF
:1028700080918100816080938100809180008160DF
:10288000809380008091910082608093910080917C
:10289000910081608093910080919000816080938D
:1028A00090008091C10084608093C1008091C1003C
:1028B00082608093C1008091C10081608093C100DB
:1028C0008091C30081608093C3008091C0008260CA
:1028D0008093C0008091C20081608093C20080918B
:1028E0007A00846080937A0080917A00826080937D
:1028F0007A0080917A00816080937A0080917A00DA
:10290000806880937A001092500110924E011092CC
:102910004F018091D70081608093D70080EA809337
:10292000D80089B5806189BD89B5826089BD09B447
:1029300000FEFDCF61E070E080E090E00E94AB120D
:102940008091D8008F7C80618093D8008091E000D6
:10295000807F8093E0008091E1008E7E8093E10093
:102960008DE08093E200559A209A81EC80937C0060
:1029700085B1806F85B984B1877E84B984B1876E53
:1029800084B95E9A5F988AB1806D8AB9769A6E989A
:1029900081B3806F81BB899880B38D7080BB80E5E7
:1029A0008CBD81E08DBD85E090E00E94B00C5F9A07
:1029B00085E090E00E94B00C5E985C98EEECFEE042
:1029C0008BED9EE024912EBD00000DB407FEFDCFDF
:1029D00031968E179F07B1F75C9A81E88093640067
:1029E0008091650081608093650080E00E949B0F6C
:1029F0000E94FB0987FF24C05C9885EA8EBD000019
:102A00000DB407FEFDCF5C9A2E982F982D988091DB
:102A1000640080628093640081E083BF889513BE68
:102A2000FCCF2D980E94FB098478843871F00E94B5
:102A3000FB098471843131F188EC90E00E94B00C84
:102A40000E94FB0982FDEDCF3AC00E94F90988EC93
:102A500090E00E94B00C2F9882E090E00E94B416A3
:102A60008F3F29F06FEF82E090E00E94BC1684EF68
:102A700091E00E94B00C2F9A0E94FB098478843860
:102A8000D9F3D5CF0E94F90988EC90E00E94B00CF0
:102A90002E9882E090E00E94B416882329F060E02E
:102AA00082E090E00E94BC1684EF91E00E94B00C9E
:102AB0002E9A0E94FB0984718431D9F3BDCF0E9404
:102AC000F90982E090E00E94AE0C882319F03E9A4A
:102AD0003F9A02C03E983F9881E090E00E94AE0C81
:102AE000182F147081FF3BC011112E98C0EFDFEF3B
:102AF0000E94FB0986FF05C02E9A2F9A0E94F909B1
:102B00002EC0112329F0C430D10511F42E9A2F982C
:102B100081E00E949B0FEE24E39400E128E54EE162
:102B20005EE0BE0184E190E00E94160B80E00E940E
:102B30009B0F8FE090E00E94B00C2196C931D10527
:102B4000B9F6112311F02F9A2D9880E991E00E9497
:102B5000B00C0E94F90981E595E00E94DA1382E346
:102B600090E00E94B00C0E94FB098111F8CF0E94F6
:102B70008E0F1092630510926205109261051092FB
:102B80006005FF24F394C0E0D0E011E08FB7F89423
:102B90004091CB055091CC056091CD057091CE054B
:102BA0008FBF80915D05942F981B892F90915E05B2
:102BB000992329F080935F0510925E0569C090917A
:102BC0005C05891740F48F5F891708F061C0F3BE78
:102BD000889513BE5DC010935E0540935D0580919E
:102BE0005805909159050196909359058093580581
:102BF00080915A0580935B050E94FB0980935A05DA
:102C0000809110018130C9F028F08230D9F40E94FF
:102C1000940C18C00E948E0F1092630510926205EA
:102C2000109261051092600580915B0583FD0AC0DA
:102C300080915A0583FF06C003C00E94B70C02C0F2
:102C4000109310010E948E0F10926305109262057E
:102C5000109261051092600580911001813099F009
:102C600028F0823091F40E94940C0FC0EE24E3947B
:102C70000FE320E84BED5EE060E070E080E090E084
:102C80000E94160B02C00E94B70C80E00E949B0FAE
:102C9000209709F47BCF0E94000078CFDF92EF925B
:102CA000FF920F931F93CF93DF93D82EF92EE42E2C
:102CB000062F10E0C8010196880F0E94FA0E83E0EB
:102CC0000E94FA0ECD2DDF2D0C0F1D1FC017D1074E
:102CD00089F0E7FE03C0FE01849101C088810E9453
:102CE000FA0EF82E80E00E94FA0E8F2121968111B3
:102CF000EDCF01C081E0DF91CF911F910F91FF9047
:102D0000EF90DF900895EBE7F5E01382128288EEF2
:102D100093E0A0E0B0E084839583A683B78388E244
:102D200091E0918380838FEF9FEF95878487E1E522
:102D3000F5E0138212821186128680E18387108665
:102D4000178215868AE391E09183808388E491E07D
:102D500095838483108A1786128A118A81E0838B77
:102D6000148A858B168A0895F999FECF92BD81BD8C
:102D7000F89A992780B50895262FF999FECF1FBAA2
:102D800092BD81BD20BD0FB6F894FA9AF99A0FBE94
:102D900001960895A1E21A2EAA1BBB1BFD010DC0CE
:102DA000AA1FBB1FEE1FFF1FA217B307E407F507FB
:102DB00020F0A21BB30BE40BF50B661F771F881FD7
:102DC000991F1A9469F760957095809590959B016D
:102DD000AC01BD01CF010895EE0FFF1F0590F491E6
:102DE000E02D099481E090E0F8940C94F716F894A3
:022DF000FFCF13
:102DF2006100140022005F005F005A000001C80059
:102E020002FFFFFFFF00E100000000000000C180A0
:102E12008100000000000000790EE5129A0E8F0E6C
:102E2200E00E9E0EBC0E00000000030ACF09910CBA
:0A2E3200900CDA13FCFF00001C14E2
:00000001FF
